:100000000C94D9040C94F6040C94F6040C94F604A5
:100010000C94F6040C94F6040C94F6040C94F60478
:100020000C94F6040C94F6040C9422290C94F629F2
:100030000C9495230C94F6040C94F6040C94F6049A
:100040000C94F6040C94F6040C94F6040C94F60448
:100050000C94F6040C9438240C94F6040C94F604D6
:100060000C94F6040C94F6040C94F6040C94F60428
:100070000C94F6040C94F6040C94F6040C94F60418
:100080000C94F6040C94F6040C94F6040C94F60408
:100090000C94F6040C94F6040C94F6040C94F604F8
:1000A0000C94F6040C94F6040C94F6046F746865D2
:1000B0007200464E20320A00464E20310A004D6141
:1000C000696E0A004C617965723A20002B001400B9
:1000D0001A000800150017001C0018000C00120080
:1000E00013002A00290004001600070009000A0076
:1000F0000B000D000E000F0033003400E1001D0066
:100100001B00060019000500110010003600370022
:1001100038002800E000E300E200E1002252000085
:100120002C0021525000510052004F0039001E0097
:100130001F002000210022002300240025002600AB
:1001400027004C0001003A003B003C003D003E000F
:100150003F004000410042004300380001004400DD
:10016000450001000100010001002D002E002F02BA
:100170003002010001000100010001000100000047
:100180000100010001000100010001000100010067
:1001900001000100010001004A004E004B004D002B
:1001A00001004C0001000100010001000100A80055
:1001B0005000510052004F000100010001000100F9
:1001C00001000100AA00A9000100010001000100D6
:1001D0000100010001000100010001000100000018
:1001E00001000100010001000100010000232000C6
:1001F000230000DA0281FFD9F1DB20A4A62EAF0094
:10020000A0C0D30000A1C8D30000AED580A81F4075
:100210008D14200007087F0807003E5B4F5B3E00FF
:100220003E6B4F6B3E001C3E7C3E1C00183C7E3CEF
:1002300018001C577D571C001C5E7F5E1C000018B8
:100240003C180000FFE7C3E7FF0000182418000077
:10025000FFE7DBE7FF0030483A060E002629792940
:100260002600407F05050700407F05253F005A3CDA
:10027000E73C5A007F3E1C1C0800081C1C3E7F0007
:1002800014227F2214005F5F005F5F0006097F0178
:100290007F00006689956A0060606060600094A2DB
:1002A000FFA2940008047E04080010207E201000A5
:1002B00008082A1C0800081C2A0808001E10101034
:1002C00010000C1E0C1E0C0030383E383000060E9C
:1002D0003E0E060000000000000000005F0000006D
:1002E000000700070000147F147F1400242A7F2ACF
:1002F000120023130864620036495620500000089B
:1003000007030000001C224100000041221C0000E5
:100310002A1C7F1C2A0008083E0808000080703054
:1003200000000808080808000000606000002010B5
:10033000080402003E5149453E0000427F40000053
:100340007249494946002141494D33001814127F32
:1003500010002745454539003C4A494931004121B3
:1003600011090700364949493600464949291E0006
:1003700000001400000000403400000000081422B7
:100380004100141414141400004122140800020146
:10039000590906003E415D594E007C1211127C0045
:1003A0007F49494936003E41414122007F41414158
:1003B0003E007F49494941007F09090901003E414A
:1003C000415173007F0808087F0000417F41000011
:1003D0002040413F01007F08142241007F404040FF
:1003E00040007F021C027F007F0408107F003E4116
:1003F00041413E007F09090906003E4151215E004E
:100400007F091929460026494949320003017F0125
:1004100003003F4040403F001F2040201F003F405E
:1004200038403F0063140814630003047804030099
:100430006159494D4300007F4141410002040810C9
:100440002000004141417F000402010204004040BD
:10045000404040000003070800002054547840004A
:100460007F28444438003844444428003844442811
:100470007F0038545454180000087E09020018A464
:10048000A49C78007F080404780000447D400000AC
:100490002040403D00007F102844000000417F4084
:1004A00000007C04780478007C0804047800384458
:1004B00044443800FC182424180018242418FC0094
:1004C0007C080404080048545454240004043F44A5
:1004D00024003C4040207C001C2040201C003C406C
:1004E00030403C004428102844004C9090907C0000
:1004F0004464544C4400000836410000000077007A
:1005000000000041360800000201020402003C26FF
:1005100023263C00000000000000404040F0F8F8B6
:10052000FF38FFF8F83FF8F8FF38FFF8F8F04040E0
:100530004000000000000080C0C0C0800000C0C0BB
:100540008000000080C0C000C0C0000080C0C000AB
:1005500000000000C0C0C0C0C000C0C0000000005B
:10056000000000000000000000000000000000008B
:10057000000000000000000000000000000000007B
:10058000000000000000000000000000000000006B
:10059000000000C0F0F8FC3E1E06010000007F4194
:1005A00041417F007F4141417F000080C0E07E5B90
:1005B0004F5BFEC00000C000DCD7DEDEDED7DC0013
:1005C000C00000000000000000000000000000006B
:1005D00000000000000000000000494949FFFFFF43
:1005E000FFE0DFBFBF00BFBFDFE0FFFFFFFF494904
:1005F0004900000000001F3F6060E0BF1F007F7FD8
:10060000071E381E077F7F007F7F0E1F3B71600033
:10061000000000007F7F0C0C0C007E7E007F7E03BC
:1006200003007F7E03037E7E03037F7E000F3E7008
:100630003C063C703E0F00327B49493F7E007F7E86
:100640000303001E3F69696F2600000000000000E0
:10065000000000030F1F3F3C7870600000007F41E6
:1006600041417F007F4141417F00307B7F783020D6
:100670002030787F3B0003000F7F0F0F0F7F0F00AC
:100680000300000000000000000000000000000067
:1006900000000000000000000000010101070F0F32
:1006A0007F0F7F0F0F7E0F0F7F0F7F0F0F0701014F
:1006B0000100000000000000000000010100000037
:1006C000000000000000000000000000000000002A
:1006D000000000000000000000000000000000001A
:1006E000000000000000000000000000000000000A
:1006F00000000000000000000000000000000000FA
:1007000000000000000000000000000000000000E9
:1007100000000000000000000000000000000000D9
:1007200000000000000000000000000000000000C9
:1007300000000000000000000000000000000000B9
:1007400000000000000000000000000000000000A9
:100750000000000000000000000000002A2B28001C
:100760000000000000000000000000000000002960
:10077000000000002C1E3420212224342627252EA0
:10078000362D3738271E1F202122232425263333D8
:10079000362E37381F0405060708090A0B0C0D0E04
:1007A0000F101112131415161718191A1B1C1D2FD0
:1007B0003130232D350405060708090A0B0C0D0EF0
:1007C0000F101112131415161718191A1B1C1D2FB0
:1007D0003130354C00000000000000000000000037
:1007E0000000000000000000000000000000000009
:1007F00000000000000000007E0F00D4FFFFFFC7D4
:10080000000000781403740069006D006300680044
:100810006F0063003400300000000C0374006900B6
:100820006D0061006C0000000403090409025B0014
:10083000030100A0FA0904000001030101000921DD
:10084000110100012240000705810308000109048D
:100850000100020300000009211101000122220011
:100860000705820320000107050303200001090496
:100870000200010300000009211101000122B6005D
:100880000705840320000112010002000000082770
:100890001164600001010200010660FF0961A1010D
:1008A0000962150026FF009520750881020963156D
:1008B0000026FF00952075089102C005010902A1DC
:1008C0000185020901A10005091901290815002562
:1008D000019508750181020501093009311581254D
:1008E0007F95027508810609381581257F95017568
:1008F000088106050C0A38021581257F95017508C7
:100900008106C0C005010980A101850319012AB72C
:1009100000150126B700950175108100C0050C096E
:1009200001A101850419012AA002150126A0029542
:100930000175108100C005010906A10185060507A2
:1009400019E029E7150025019508750181020507C1
:10095000190029EF1500250195F0750181020508A0
:1009600019012905950575019102950175039101FC
:10097000C005010906A101050719E029E7150025B1
:100980000195087501810295017508810105071916
:100990000029FF150026FF0095067508810005084F
:1009A00019012905950575019102950175039101BC
:1009B000C00011241FBECFEFDAE0DEBFCDBF11E0D3
:1009C000A0E0B1E0EEE9FFE502C005900D92A23C87
:1009D000B107D9F725E0A2ECB1E001C01D92A33523
:1009E000B207E1F70E94A9140C947B2F0C9400002D
:1009F00060E084EC90E00E94371A8091DC010E9454
:100A00004A06813071F1882341F0823071F160E053
:100A10008CEA90E00E94491A05C060E08EEB90E0FD
:100A20000E94371A62E080E00E943A190E94B91FC2
:100A30001F928F938EE191E09F938F9380E293E0DA
:100A40009F938F930E94972C60E080E293E00E9436
:100A50001C1A0F900F900F900F900F900F9080E046
:100A6000089560E088EB90E0DBCF60E082EB90E0FF
:100A70000E94371ACCCF83E008958330B8F46430F5
:100A8000A8F44C3098F450E09CE0699F400D511D53
:100A90001124FA0190E3899FE00DF11D1124EE0F5E
:100AA000FF1FE453FF4F85919491089581E090E0FA
:100AB000089581E008950E945905089581E0089500
:100AC0000E94590508950E946005089508950E94A6
:100AD00066050895A6E0B0E0E0E7F5E00C94412C4F
:100AE00049835A839E833091C90189819A8131114A
:100AF0001AC03E81332399F0222389F00E94F00A24
:100B0000182F682F89819A810E94CC0A69817A8185
:100B1000812F0E940B122696E3E00C945D2C0E941C
:100B2000DE0A182FF3CF0E94F00A69817A81F1CF93
:100B3000FC01262F408151816281738184819581DE
:100B40000E946A050895CF93DF93EC0161E00E9453
:100B50009805BE010E945B05DF91CF910895CF9368
:100B6000DF93EC0160E00E949805BE010E946705DA
:100B7000DF91CF91089508950E94C8090E94BB0596
:100B80002FEF84E39CE0215080409040E1F700C0CB
:100B9000000008950E94BC050E945C2408950E94F4
:100BA000BC050E946D2408950F931F93CF93DF938C
:100BB0008C0161E00E949805EC01F8018581882391
:100BC00019F0CE010E94DC1FB801CE010E94A117CE
:100BD000811106C080E0DF91CF911F910F910895A0
:100BE000B801CE010E9463058823A1F3B801CE01AC
:100BF0000E94751F882371F3B801CE010E949C1BCF
:100C0000882341F3B801CE010E94E71E882311F327
:100C1000B801CE010E94C5208823E1F2F801858148
:100C2000882361F0C330FCE7DF07E9F058F4C11511
:100C3000ECE7DE07A9F0C130DC47B9F0C8010E943B
:100C40005E05C9CFCB358CE7D807A9F0CC35ECE7EA
:100C5000DE0771F0CA35DC4789F70E94480FEECFF6
:100C60000E94CA05B7CF0E94500F0E94CF05B2CF95
:100C70000E943E0FE3CF0E944C0FE0CF0E947123F1
:100C80000E9478060E94541B08950E947C060E94D0
:100C900076230895982F92959F7011F0892F94E0F4
:100CA000282F2695269511F09E5F822F869509F0B4
:100CB0009F5F892F0895089581E008950895CF9347
:100CC000DF93D82F0E945C06C82F882319F08D2F40
:100CD0000E945E068C2FDF91CF9108950895CF93E7
:100CE000C82F0E945B068C2F0E945F06CF9108954B
:100CF00080E00E946F0608950E9404220E946F0601
:100D00000895CF930E940422C82F8091C4018C17AC
:100D100079F0C093C4010E9401246093C5017093CF
:100D2000C6018093C7019093C8018C2F0E946F0663
:100D3000CF910895ADE0B0E0E0EAF6E00C94422CEB
:100D4000488759876A877B878C879D8791110E9486
:100D5000760E1F8286E0FE013896DE011196019024
:100D60000D928A95E1F78D8181110DC029813A811B
:100D70004B815C816D817E818F810E94A90D2D96B2
:100D8000E2E00C945E2CCE0101960E94A305811135
:100D9000EDCFF5CFFC012481213021F480819181B8
:100DA0000E941D0B0895662329F00E942D150E94B4
:100DB000001608950E948715FACFCF93C82F882375
:100DC000B9F08CEF8C0F813AA8F46C2F8091000160
:100DD000909101010E949722882329F08C2F0E9474
:100DE000360E0E94AF0E8C2F0E942E0E0E94AF0E68
:100DF000CF91089580E28C0F883048F4C77081E06D
:100E000001C0880FCA95EAF70E94590EEFCFEBE5B3
:100E1000EC0FE33040F4F0E0E25AFE4F808190E0C6
:100E20000E943922E5CFE8E5EC0FEB3150F4F0E019
:100E3000EE0FFF1FE85DFE4F808191810E945E22D0
:100E4000D7CF83E38C0F833198F661E08C2F0E941B
:100E5000D306CECF882381F19CEF980F913A28F4E6
:100E60000E94360E0E94AF0E089590E2980F9830BF
:100E700050F4877091E001C0990F8A95EAF7892FA5
:100E80000E945F0EEFCF9BE5980F933028F490E01F
:100E900080E00E943922089598E5980F9B3128F44C
:100EA00090E080E00E945E22089593E3980F9331D2
:100EB00018F460E00E94D30608951F93CF93DF9348
:100EC000182FEB010E94DD06209739F4812F0E9434
:100ED0002A07DF91CF911F9108958FE99FE0019735
:100EE000F1F700C000002197EFCF70E060E0893398
:100EF00011F460E570E00E945D070895882321F0F9
:100F00000E94590E0E94AF0E0895882321F00E947E
:100F10005F0E0E94AF0E0895B0E0A0E0E2E9F7E0B6
:100F20000C943B2C6C01D62FC72FFC011581068138
:100F300002950F700E944F0EE82E8823E9F0E12EF3
:100F40001123D1F08C2F807F803451F080E28D0FFF
:100F50008830F8F0011104C08C2F807E8032C9F0F7
:100F600080912B0382FF15C082E00E94120F0E9425
:100F70004F0E91E0E82EE926BC2EB2949FE0B922F4
:100F8000FBE0FB15B8F1EB2DF0E0E358F04D0C94CD
:100F9000122CE12CF1CF0C2F0F70C07F11F00295B5
:100FA000007F112399F0002359F080E28D0F8830E3
:100FB00010F0D11107C0802F0E94590E0E94AF0E71
:100FC0008D2F5AC0802F0E94690EF8CF8D2F0E945E
:100FD0002A07002379F080E28D0F883010F0D111BC
:100FE00004C0802F0E945F0E03C0802F0E946F0EEE
:100FF0000E94AF0EEB2DE850FF0B349720F40E94B7
:1010000004220E946F06EE2089F00E944B0E80FDA4
:101010000DC0F60115820E94450E0E94400AC601CD
:101020000E948F090E94450E0E944C0ACDB7DEB780
:10103000E9E00C94572C2C2F2F70F22EC07FC03279
:1010400019F0F29480EFF822DD2341F0D130D1F194
:10105000112309F444C00023F1F0B2CF80912B0397
:1010600082FD15C0112359F0FF2029F08F2D0E9419
:10107000590E0E94AF0E80E00E94DD06BBCF80E0DB
:101080000E942A07FF2009F4B5CF8F2DABCF112383
:1010900069F0011104C08F2D0E947E07ABCF013093
:1010A00009F0A8CF8F2D0E948D0EA4CF0111A2CFE1
:1010B0008F2D0E9485078F2D0E94990E8F2D0E94E3
:1010C0007D0E98CF112321F0063008F093CFE3CFA7
:1010D000053008F08FCF8F2D0E9485078BCF00231E
:1010E000D1F3D93349F43FEF87EE93E0315080409C
:1010F0009040E1F700C000008D2F0E942A077ACFB0
:101100008C2F86958695837069F0813009F072CFB7
:101110008D2F9C2F9370111102C080E090E00E94EF
:101120005E2268CF8D2F9C2F9370111102C080E03A
:1011300090E00E9439225ECF612F8D2F0E94D3064E
:1011400059CF8C2F837079F5111154CF4D2F4295C3
:1011500046954770440F440F8D2F8F70042E01C0A9
:10116000880F0A94EAF72D2F2071D4FF07C02FE0D3
:1011700030E001C0220F4A95EAF72095C695C69542
:10118000C370822BC23049F058F4C13019F00E946C
:101190001C0A30CF0E94160A2DCF0E94220A2ACFA5
:1011A0000E94130A27CF8695112311F08C2F81708E
:1011B000882309F41FCF4D2F429546954770440F61
:1011C000440F8D2F8F70042E01C0880F0A94EAF708
:1011D0002D2F2071D4FF07C02FE030E001C0220F77
:1011E0004A95EAF72095C695C695C370822BC23002
:1011F00049F058F4C13019F00E946B0AFBCE0E94EE
:10120000650AF8CE0E94710AF5CE0E942E0AF2CE2F
:10121000CF70112329F08C2F0E94400A8D2F3CCFD4
:101220008D2F0E9485078C2F0E944C0AE3CED23F5F
:1012300041F160F4D03FB9F0D13F81F0112309F4BE
:1012400046C00111BDCE8C2F8F711FC0D33F01F15D
:10125000D43FA1F780912B0382FD24C08C2F8F7186
:10126000112311F312C0112341F0053008F0C2CE52
:101270008C2F8F710E94590ABDCE063008F0BACE6D
:10128000F7CF8C2F8F711111CFCF0E94400AB2CEB1
:10129000112329F08C2F8F710E94370AABCE0E9448
:1012A000330AA8CE112349F0CF718C2F0E94400A37
:1012B00063E08C2F0E94F40E9DCE81E00E94120FFD
:1012C000023008F497CE82E00E94120F93CE0023E2
:1012D00059F0D93309F010CFEFEFF7EE23E0E150EA
:1012E000F0402040E1F706CF8C2F8F719DCF0F93F8
:1012F0001F93CF93DF93EC01688179818D810E94E8
:10130000280B8C010E94770A0E94120AB801CE01B4
:101310000E948C07DF91CF911F910F910895CF9379
:10132000DF93EC018C81882399F0CE010E94D405D3
:10133000811111C00E944F0E882351F08D818823A6
:1013400039F080912B0382FF03C082E00E94120FCC
:10135000DF91CF910895CE010E947709CE010E94BE
:10136000AF05F6CF90E080E00E94392290E080E067
:101370000E945E220E94760E0E94AF0E0E941C16F2
:101380000E94001608950E943E0E0E94B209089520
:101390000E94660E0E94C309089592959F70963030
:1013A00091F058F4925F9F70923058F4803F19F09A
:1013B00030F4883E30F481E008959A5FF4CF843FA2
:1013C000D1F380E00895883EB0F3813FD1F7F3CFA9
:1013D000FC012481222339F0808191810E941D0B20
:1013E0000E94CD09089580E00895A6E0B0E0EBEFFB
:1013F000F9E00C94422C2696E2E00C945E2CA7E0D7
:10140000B0E0E5E0FAE00C94422C2796E2E00C9480
:101410005E2C08950E94090A08950E940A0A80938A
:10142000DD01089508950E940D0A08959091DD014F
:10143000892B0E940D0A08959091DD0189230E9455
:101440000D0A08959091DD0189270E940D0A0895E3
:101450000E94090A08950E94280A08950E942B0AF2
:101460008093DC01089580E00E942E0A089591E0A7
:1014700001C0990F8A95EAF7892F0E942E0A0895D4
:1014800021E030E001C0220F8A95EAF78091DC016B
:10149000822B0E942E0A089521E030E001C0220F25
:1014A0008A95EAF720958091DC0182230E942E0A1A
:1014B000089521E030E001C0220F8A95EAF780917B
:1014C000DC0182270E942E0A08959091DC01892B6D
:1014D0000E942E0A08959091DC0189230E942E0A11
:1014E00008959091DC0189270E942E0A089508959D
:1014F000262F277091E001C0990F2A95EAF723E083
:10150000769567952A95E1F7FB01EE0FFF1FE60F31
:10151000F71FE40FF51F50E040E0682F70E0819165
:10152000DF0111979B01042E02C0369527950A947E
:10153000E2F7217021952827292328272C934F5F34
:101540005F4F4330510559F70895A82FA77023E046
:10155000969587952A95E1F7FC01EE0FFF1FE80F9E
:10156000F91FE60FF71F50E040E080E0219130E0E6
:101570000A2E02C0369527950A94E2F72170332788
:10158000042E01C0220F0A94EAF7822B4F5F5F4FAF
:101590004330510559F70895262F943070F48C305C
:1015A00060F4682F70E08CE0989F600D711D11242D
:1015B0004AEC51E0822F0E94780A0895292F943036
:1015C00068F48C3058F490E06AEC71E03CE0239FC2
:1015D000800D911D11240E94A50A089580E00895B0
:1015E000CF92DF92FF920F931F93CF93DF936C0103
:1015F0000091DC018091DD01082BC3E0D0E010E018
:10160000FC2EC8010C2E02C0959587950A94E2F72E
:1016100080FD0CC02197A0F7F12C8F2DDF91CF9189
:101620001F910F91FF90DF90CF900895B6018C2FFE
:101630000E941712019771F3F0CFCF93DF93EC0163
:101640000E94F00ABE010E941712DF91CF91089507
:101650001F93CF93DF93EB019091C901992339F048
:10166000CB010E941D0BDF91CF911F91089588231C
:1016700069F0CB010E94F00A182F682FCE010E945A
:10168000CC0ABE01812F0E941712EDCFCB010E9420
:10169000DE0A182FF6CFE1E0F0E0DF0102C0AA0F6A
:1016A000BB1F6A95E2F7BD01DF0102C0AA0FBB1F95
:1016B0004A95E2F76A2B01C0EE0F2A95EAF7962FBA
:1016C0009823961302C08E2B0895E0958E230895DB
:1016D000242F462F682F8091DC010E944B0B0E9423
:1016E0002E0A08951F93CF93DF93C091DE0117E078
:1016F0008091DF018C1304C0DF91CF911F91089579
:10170000D0E01C9FF0011D9FF00D1124E052FE4F10
:1017100020813181428153816481758186810E945B
:10172000FF092196C770E4CF209118023091190269
:1017300040911A0250911B0260911C0270911D028F
:1017400080911E020E94FF090895CF93DF9380913C
:101750001E02807F09F04DC080911D02882309F48C
:1017600048C0E091DE015091DF01C0911902D09193
:10177000180260911A0270911B0247E05E17C9F1CE
:101780008E2F90E0E49FF0011124E052FE4F24815F
:10179000222391F1489FF001499FF00D1124DF01B0
:1017A000A052BE4F11962C9111972C1325C02C914D
:1017B0002D1322C015962C91159721111DC012963C
:1017C0002D913C91261B370B283C3105A8F48091C4
:1017D0001E028F70806180931E02EA51FE4F80814D
:1017E0008F708061808388E192E00E948F090E945F
:1017F000720BDF91CF910895FC013196E770BECF57
:10180000482F2091DE019091DF0157E0291302C09B
:1018100080E0089530E0529FF001539FF00D1124B5
:10182000E052FE4F8181681306C08081481303C0D7
:1018300085818111EECF2F5F3F4F2770E7CFA4E165
:10184000B0E0E5E2FCE00C94382C8C0186E0F80175
:10185000DE011F9601900D928A95E1F7F8018481CF
:10186000E58098E1A92E92E0B92E90911C02911189
:101870001FC08823D1F0EE20A9F0C8010E94E8091A
:10188000F82E882379F087E0F801D50101900D92B8
:101890008A95E1F7C5010E94CA060E94A50B0E9425
:1018A000940B5FC0C8010E948F09FF24F39459C0B4
:1018B000C080D18082809380F0901D0220911A0216
:1018C00030911B02A401421B530BFF2009F4F9C005
:1018D000483C510508F0A7C0882309F442C0909104
:1018E000190280911E02282F207F09F05CC09D11F3
:1018F00016C090911802C91212C0E1104EC08F702C
:10190000806180931E020E94940B88E192E00E9405
:101910008F0980911E02F8018683F12C22C0E1100C
:101920003CC06D2D8C2D0E94000C6D2D8C2D0E94C5
:10193000000CE82E8111F1CFCF86D88A8F85988947
:101940000E941D0B292F22952F70243078F49F7050
:101950002230A8F09923B9F0F8019681907F99F48C
:10196000FE2C8F2D6496ECE00C94542C2A5F2F7083
:10197000223068F0C8010E948F09EF2CF1CF992323
:1019800011F0882369F3805E883050F3F3CF803FF5
:1019900038F3815F833070F7E3CF80911E0281605E
:1019A00080931E02BACF9D1113C090911802C912E4
:1019B0000FC0E1100DC08683C8010E948F0987E027
:1019C000F801A8E1B2E001900D928A95E1F767CFA6
:1019D000C8010E94E809882309F464CFEE2009F4C5
:1019E00061CF80911E02803288F0209118023091E0
:1019F0001902398728879B868A8690911C029C87CA
:101A00001D868E87CE0108960E948F0987E0F80117
:101A1000A8E1B2E001900D928A95E1F70E94A50B32
:101A20000E94940B42CF90911E02292F207FA1F497
:101A3000682D9A8A898AA6017A899E2D0E94F509C5
:101A400088E192E00E948F0987E0F50111928A9562
:101A5000E9F70E94940B61CF882309F482CF80912B
:101A600019028D1110C080911802C8120CC0E1102B
:101A70000AC09683C8010E948F0987E0F501119280
:101A80008A95E9F76ECFC8010E94E809882309F416
:101A900009CFEE2009F406CF80911E02803208F4AF
:101AA000B5CF20911802309119023A8329839C8284
:101AB0008B8290911C029D831E828F83CE010196A2
:101AC000A3CF483C5105B8F5882309F4EECEFE2C8F
:101AD000EE2009F4E7CE809119028D111EC080918D
:101AE0001802C8121AC080911E0280FD0DC0982FE6
:101AF000907F51F08683903F09F45ECF982F907FBE
:101B0000905F8F70892B57CF87E0F801A8E1B2E092
:101B100001900D928A95E1F724CFC8010E94E8094F
:101B2000811174CF80911E02816080931E02C801D2
:101B30000E948F0916CF682D9A8A898AA6017A8910
:101B40009E2D0E94F50987E0F50111928A95E9F72B
:101B5000A6CEAEE0B0E0EFEAFDE00C94412C288781
:101B600039874A875B876C877D878E87CE01089689
:101B70000E941F0C8823B1F06C85662341F02885F4
:101B800039854A855B857D858E850E94FF0917E032
:101B90008091DE019091DF0189133DC02E96E3E034
:101BA0000C945D2C87E0FE013896DE0111960190C1
:101BB0000D928A95E1F78C85882349F32091DF0106
:101BC00030E0C9010196877099274091DE014817DE
:101BD000190699F097E0929FD001939FB00D1124C0
:101BE000A052BE4FFE01319601900D929A95E1F7F9
:101BF0008093DF010E94720BCACF0E94C809109225
:101C0000DF011092DE0187E0E8E1F2E0DF011D92E2
:101C10008A95E9F7BCCF819FC001112480529E4F65
:101C20000E941F0C882309F4B9CFE091DE011E9FAA
:101C3000F0011124E052FE4F208131814281538115
:101C40006481758186810E94FF098091DE0190E0A8
:101C50000196877099278093DE019ACF682F809133
:101C60000001909101010E9417230895682F80912F
:101C70000001909101010E942523089580910001A7
:101C8000909101010E943323089580913F0286952F
:101C900086958695089580913F028770089590916A
:101CA0003F02977081E009F480E00895809163021B
:101CB000089590916302892B809363020895809523
:101CC00090916302982390936302089510926302A7
:101CD000089590916202892B809362020895809505
:101CE000909162029823909362020895109262028A
:101CF000089508950E94790E089590914002292F29
:101D0000282331F080958923809340020E947A0E27
:101D1000089508950E94890E089590914102292FF7
:101D20002823281729F0982B909341020E948A0EAD
:101D3000089590914102292F282331F0809589231D
:101D4000809341020E948A0E089580914102882367
:101D500029F01092410280E00E948A0E0895CF93EC
:101D6000DF93E0910001F091010180916302808393
:101D7000E0910001F0910101808190916202892B34
:101D8000808390914102992381F0E0910001F091CC
:101D900001018081892B8083809100019091010154
:101DA0000E94832281110E94A50EC0910001D09152
:101DB000010140E250E06FE172E0CE010E94812C0F
:101DC000892B59F080E2FE01AFE1B2E001900D9263
:101DD0008A95E1F7CE010E941122DF91CF910895FB
:101DE00008950E94F00E089590912B0392FF11C068
:101DF00098E0899F90011124622B60933F020E941A
:101E0000400A80913F028695869586950E94F10E44
:101E100008950E94400A089510923F0280E00E94B7
:101E2000F10E089590913F028095892380933F029F
:101E3000282F277069F4891759F090912B0392FF8E
:101E400007C08695869586950E944C0A0E940C0FC5
:101E5000089590912B0392FB222720F9281769F00F
:101E600080FB92F990932B0380912A0390912B038E
:101E70000E94720F82E00E94120F089580912B033E
:101E800082FB882780F991E089270E94290F089515
:101E900081E00E94290F089580E00E94290F089593
:101EA0006FEF7FEF90E080E00E94652F089590E053
:101EB00080E00E94312F863E9E4F19F40E943A170F
:101EC000089580E0089582E090E00E94292F08950F
:101ED00083E090E00E94292F089584E090E00E9422
:101EE000312F0895BC0184E090E00E94652F089591
:101EF000AB01BC018FE090E00E94592F0895AB0127
:101F0000BC0183E190E00E94592F089560E070E0E9
:101F1000CB010E947F0F089560E070E0CB010E942A
:101F2000780F0E94860F0895A8E0B0E0EAE9FFE08C
:101F30000C94422C66EE7EEF90E080E00E94652FCC
:101F400060E082E090E00E94472F60E083E090E054
:101F50000E94472F1092DD0160E074E184E090E080
:101F60000E94652F60E086E090E00E94472F6FEFAF
:101F700087E090E00E94472F40E050E0BA0188E0FF
:101F800090E00E94592F60E084E290E00E94472F89
:101F900060E087E190E00E94472F60E08CE090E0F5
:101FA0000E94472F60E08DE090E00E94472F198249
:101FB0001A821B821C821D821E821F82188648E0A4
:101FC00050E068E170E0CE0101960E94372F40E0BA
:101FD00050E0BA0180E290E00E94592F80E00E9418
:101FE00053170E9483170E948C0F2896E2E00C94EE
:101FF0005E2C0E94940F0895682F8EE090E00E945E
:10200000472F0895A6E0B0E0E8E0F0E10C94402C02
:102010000E94F5238C0180916402909165028017E3
:10202000910781F019821A820E94F523682F498155
:102030005A81792F80E090E00E949A061093650201
:10204000009364022696E4E00C945C2C0E94012428
:10205000609372027093730280937402909375027E
:1020600060936E0270936F0280937002909371027E
:102070000895089508950E943A10089508950E94C1
:102080003E10089581E0089581E093E10E94FA21D5
:102090000E9439100E943B1008950E94421008953A
:1020A0000E944D100895089508950E9453100E94B3
:1020B000541008950E9420130E946E0608950E94F5
:1020C000EC230E9493170E94F1130E945A1080E0A3
:1020D0000E94EE180E943F100895A6E0B0E0E3E7EA
:1020E000F0E10C94352C0E944210782E811112C020
:1020F0000E940210712C0E94F11F0E94721B71102D
:102100000E944F1A0E943E160E9481062696EFE01A
:102110000C94512C0E94071426E6822E22E0922E67
:10212000640110E0F601E190F1906F01812F0E94AF
:1021300043131F5F143009F44BC0E816F90691F3FE
:102140008091760281FD0E944C130E945010682EEF
:1021500010E055245394812F0E9443137C01F40115
:10216000A190B1904F018A159B0561F1A826BF246B
:1021700000E0CC24C394D12CC5018C219D21892B56
:10218000C1F06620B1F009831A830E94F5239C8375
:102190008B835D8221E0C7018C219D21892B09F46D
:1021A00020E049815A816B817C818D81922F0E9430
:1021B0009A060F5FCC0CDD1C0C30F1F6F40132975F
:1021C000F182E0821F5F143031F60E94261093CF17
:1021D000E816F90609F0B4CF8BCF1F93CF93DF93A6
:1021E0000E941C12EC01C11580E5D807F0F5C1155D
:1021F00080E4D80708F09CC0C03ED10520F5CD3C56
:10220000D10508F082C0C83AD10578F4C53AD105A5
:1022100008F073C0C130D10519F1209709F1C4301D
:10222000D105F0F4D0E0C0E01BC0C33CD105D0F72D
:10223000C85AD0E0CC0FDD1FCF59DE4F0990D881AE
:10224000C02DD4640DC0C11580E2D80708F0D1C0FC
:10225000C11581E0D80708F05AC0C83ED10510F773
:10226000CE01DF91CF911F910895C03682E5D80746
:1022700018F5C03482E5D80708F06BC0C03282E59B
:10228000D80708F05FC0C11582E5D80708F497C0E9
:102290002C2F2695269580E2289F900111248C2FC3
:1022A0008370C1E0D0E002C0CC0FDD1F8A95E2F759
:1022B000C22BD32BDD68D4CFC03A82E5D80760F4B7
:1022C000C03882E5D80708F459C0CF71D0E0DC2FC0
:1022D000CC27C46FD06AC4CFC03C82E5D80708F4CD
:1022E00062C0C03E82E5D80708F09CCFDC2FCC2727
:1022F000CC27DF71C06FD06AB3CFC55AD0E0C956C2
:10230000DE4FC881D0E0D064ABCFD065A9CF8D2F90
:102310000E94BE12182FCE0199270E941C12C12FB5
:10232000D0E0DC2FCC27CC27DF71C82BD92B98CF5E
:10233000CE0199270E941C12CC27DF70C82BD92B05
:10234000D06A8ECFCF71D0E0DC2FCC27C16FD06A9E
:1023500087CF2C2F26952695277080E2289F900105
:1023600011248C2F8370C1E0D0E002C0CC0FDD1FA0
:102370008A95E2F7C22BD32BDC6872CF2C2F2695DF
:102380002695277080E2289F900111248C2F83705E
:10239000C1E0D0E002C0CC0FDD1F8A95E2F7C22B6E
:1023A000D32BDA685DCF8C2F8F710E94BE12C82F9D
:1023B000D0E0DC2FCC27CC27DF71D06251CF8C2F1F
:1023C0008F710E94BE1255E0D695C7955A95E1F7D8
:1023D000CF70D0E0DC2FCC27282F30E084FF05C061
:1023E00044E0220F331F4A95E1F7C22BD32BD0696B
:1023F00037CF8D2F8F710E94BE12182FCE019927D3
:102400000E941C12C12FD0E0DC2FCC27CC27DF711B
:10241000C82BD92BD2CF462F743030F46C3020F437
:10242000672F0E94FF1D089590E080E008950E94AC
:102430000B120E94ED10089582389105B9F1B0F4A5
:102440008133910509F47DC048F48932910509F47E
:102450006DC08A32910509F47BC0089585339105DA
:1024600009F45FC08933910509F10895833E910510
:10247000D9F138F4803E910529F1823E910579F138
:102480000895863E9105D9F1873E910509F43EC035
:10249000843E910541F520912B0321FF24C08091BA
:1024A0002A0384FD19C087EE90E0089520912A0345
:1024B000237009F05AC020912B0323FF14C089E236
:1024C00090E0089520912A0320FD38C030912B031D
:1024D00030FF09C024FF43C090E080E008952091C0
:1024E0002A0322FDF7CF089520912A0322FD3AC046
:1024F00030912B0330FD39C024FFF5CFEDCF209173
:102500002A0323FFF0CF24FDE7CFCDCF20912A036C
:1025100023FD2EC030912B0331FFEECF84EE90E0EF
:10252000089520912A0325FFDECFC9CF20912A03E9
:1025300025FD21C020912B0323FFD5CF89E390E017
:10254000D2CF20912A0326FFCECF8AE290E00895D1
:1025500020912A0326FFC7CF81E390E0089583EE00
:1025600090E0089582EE90E0089580EE90E0089566
:1025700086EE90E0089585E390E0089590912A0317
:1025800092FF06C0282F28712830F9F4877F8460D5
:1025900093FF06C0282F28712831F1F4877E8461CB
:1025A00020912B0320FF06C0382F38713830D9F422
:1025B000877F816021FF06C0282F28712831D1F440
:1025C000877E816194FD877E0895282F24712430B1
:1025D000F9F68B7F8860DCCF282F2471243101F736
:1025E0008B7E8861DDCF382F3171313019F78E7FC6
:1025F0008860E0CF282F2171213121F78E7E8861FC
:10260000E1CF80E008950E94500F08950E940714C2
:102610002FEF86E791E0215080409040E1F700C025
:1026200000000E94071480E00E94431380FF04C052
:102630000E9403130E945C2408950E9406130895CB
:102640000E94570F811102C00E94F90F0E94630F70
:10265000809376020E946D0F90932B0380932A0340
:102660000E941D130E94680F0E94130A8091DC01D2
:102670000E942B0A089508950E943B13089508951F
:102680000E943F130895E82FF0E0EE0FFF1FEC5C6F
:10269000FC4F808191810895089580EA8A95F1F731
:1026A000089500C008950E944D130895F894E82FEE
:1026B000E295EF70F0E031A1282F2F7081E090E0DB
:1026C00001C0880F2A95EAF7982F9095932391A33C
:1026D00092A1892B82A378940895CF93DF93CAE9BE
:1026E000D1E089918F3F11F00E94561381E0C63AE4
:1026F000D807B9F783E90E94561382E90E9456135E
:1027000084E90E94561386E60E945613DF91CF910A
:102710000895B0E0A0E0EFE8F3E10C943A2CD82E55
:10272000E92EF62E8A01C62FD0E0CE0186569E4FA6
:102730005C01EC0128812F3F09F449C0F894E22F95
:10274000E295EF70F0E031A12F7081E090E001C0E0
:10275000880F2A95EAF7932F982B91A392A1809541
:10276000892382A378940E945113A6EAB1E0ED2D4B
:10277000FE2D6AEA71E0E12C6801C094D0944D917D
:10278000808191814F3F41F1242F22952F7030E0BD
:10279000E90128A130E04F7002C0359527954A9590
:1027A000E2F720FD19C0802B912B91838083EE24CA
:1027B000E39432966A177B0711F7F50180818F3F0A
:1027C00011F00E9456136E2D8F2D0E945313CDB71A
:1027D000DEB7EAE00C94562C8C219D2191838083F6
:1027E000E8CF0E946D1388E0E4E3F3E0DF01982F67
:1027F0001D929A95E9F7ECE2F3E0DF011D928A95CC
:10280000E9F784E00E945B140E943C130895CF9284
:10281000DF92FF920F931F93CF93DF93CDB7DEB775
:1028200028970FB6F894DEBF0FBECDBF8E010F5FA5
:102830001F4F88E0F80111928A95E9F7F12CCC241A
:10284000C394D12CA6016F2DC8010E948913F39463
:10285000CC0CDD1CFCE0FF12F5CF48E050E0B801E5
:102860008CE293E00E94812C21E0009709F420E0A3
:10287000892B41F088E0F801ACE2B3E001900D92C1
:102880008A95E1F744E064E373E08CE293E00E9410
:102890005C14182F0E944013812F28960FB6F894CD
:1028A000DEBF0FBECDBFDF91CF911F910F91FF9083
:1028B000DF90CF9008950895CF92DF92EF92FF922C
:1028C0001F93CF93DF936C017B01C42F222349F028
:1028D00081E0809379020E94F5239093780280939F
:1028E00077021091790211110AC010E0812FDF9157
:1028F000CF911F91FF90EF90DF90CF90089580913E
:102900007702909178020E940D24059770F3D0E031
:10291000CC0FDD1FAE01B601C7010E94812C892BAF
:1029200041F0AE01B601C7010E948E2C10927902CF
:10293000DDCF10E0FBCF0E94F7250E945F100E94C0
:10294000042608950E9409260E946D100E942326E5
:1029500008950E948E230E94DD250E9444100E944B
:102960009B140E94A2140E945510FBCF80918002FC
:1029700080FF0DC06091070170E0660F771F60381F
:10298000710570F56115710569F1862F089581FF54
:1029900007C06091070184E0689FB0011124EFCF68
:1029A0006091070182FD0AC080917F028823A9F00F
:1029B0002091060160910701821710F088E0ECCFAA
:1029C000869FC001112433E0880F991F3A95E1F7E3
:1029D000622F70E00E94BD2BD2CF68E070E0D5CFAF
:1029E0008FE7089581E008958091800280FF0CC0F8
:1029F0006091030170E07595679575956795611510
:102A0000710549F1862F089581FF06C06091030189
:102A100070E075956795F3CF6091030182FD0BC05F
:102A200090917E029923A1F06091020180910301AF
:102A3000961738F0682F70E06038710500F38FE763
:102A40000895899FC001112470E00E94BD2BF4CF2E
:102A500061E070E0D7CF81E008958D3C31F40E94B1
:102A6000B61481958093840208958E3C19F40E94D7
:102A7000B614F8CF8F3C31F40E94B6148195809340
:102A800083020895803D19F40E94B614F8CF893D61
:102A900029F40E94F4148093850208958A3D21F45C
:102AA0000E94F4148195F7CF8B3D31F40E94F41409
:102AB00081958093860208958C3D19F40E94F41448
:102AC000F8CF9FE2980F983070F4815D990B21E068
:102AD00030E001C0220F8A95EAF780918202822BB2
:102AE0008093820208958D3D31F48091800281604F
:102AF0008093800208958E3D21F48091800282604F
:102B0000F7CF8F3DB9F7809180028460F1CF40917B
:102B100083028D3C59F48091840287FF0DC010928E
:102B2000840241110BC010927F0208C08E3C81F4D8
:102B30008091840218169CF3442381F080918502D1
:102B400090918602892B09F05AC010927E02089556
:102B50008F3C49F447FFF0CF1092830280918402AA
:102B60008111ECCFE0CF803D19F41416ACF3E4CF23
:102B700090918502893D29F41916F4F61092850288
:102B8000DBCF8A3D19F497FFD7CFF8CF909186021B
:102B90008B3D29F497FFD0CF10928602CDCF8C3D8C
:102BA00019F41916CCF3C8CF9FE2980F983090F41F
:102BB000815D990B21E030E0B90102C0660F771FFB
:102BC0008A95E2F7CB0180959091820289238093C8
:102BD0008202B2CF8D3D31F4809180028E7F80934E
:102BE0008002AACF8E3D21F4809180028D7FF7CFA5
:102BF0008F3D09F0A1CF809180028B7FF0CF0895A7
:102C00000E94F5239C019091830280918402982B6D
:102C100021F030937D0220937C0290918502809177
:102C20008602982B21F030937B0220937A0281E870
:102C300092E00E942B22089586E0E1E8F2E0DF01B5
:102C40001D928A95E9F710927F0210927E021092EF
:102C500080020895FC01828181110EC0838181115F
:102C60000BC08481811108C091E08581811101C070
:102C700090E0892F8170089581E0FCCFA6E0B0E05C
:102C8000E4E4F6E10C94412C86E0E1E8F2E0DE01B8
:102C9000119601900D928A95E1F71092830210929D
:102CA000840210928502109286028B819C81892B6E
:102CB00089F080917C0290917D020E940D24AC01EC
:102CC00090917F029923C9F180910801841715061C
:102CD00008F440C08D819E81892B91F080917A0209
:102CE00090917B020E940D24AC0190917E02992369
:102CF00009F471C0809104018417150608F479C0A5
:102D0000BE016F5F7F4F81E892E00E9445238111F1
:102D100005C081E892E00E942A1681110E940016E7
:102D200086E0FE013196A1E8B2E001900D928A950D
:102D3000E1F72696E3E00C945D2C209109018AE0EE
:102D4000289F900111242417350720F69F5F909348
:102D50007F0202C09F3FD1F71B81112359F00E94CF
:102D6000B6149FEF11160CF491E0899F802D112469
:102D7000809383021C81112359F00E94B6149FEFA7
:102D800011160CF491E0899F802D11248093840208
:102D900030918302332309F49DCF209184022223B2
:102DA00009F498CF45EB3403C0011124992359F05D
:102DB0009093830245EB240390011124332339F0CF
:102DC0003093840287CF81E080938302F3CF81E048
:102DD000809384027FCF209105018AE0289F900193
:102DE00011242417350708F08BCF9F5F90937E0244
:102DF00002C09F3FD1F71D81112359F00E94F414A6
:102E00009FEF11160CF491E0899F802D112480937F
:102E100085021E81112359F00E94F4149FEF1116B0
:102E20000CF491E0899F802D1124809386023091CB
:102E30008502332309F464CF20918602222309F40A
:102E40005FCF45EB3403C0011124992359F09093CF
:102E5000850245EB240390011124332339F030938C
:102E600086024ECF81E080938502F3CF81E080938C
:102E7000860246CF85E290E00E94292F843289F4B1
:102E800086E290E00E94292F813059F487E290E099
:102E90000E94292F91E0813009F090E0892F817004
:102EA000089580E0FCCFCF93C82F6FEF811164E2CB
:102EB00085E290E00E94472FC1110DC0CFEF6C2F2B
:102EC00086E290E00E94472F6C2F87E290E00E94FC
:102ED000472FCF910895C1E0F2CF089588E290E0A6
:102EE0000E94292F682F70E090E080E008950895F7
:102EF000CF93C62F0E9477176C2F88E290E00E9434
:102F0000472FCF91089580E00E94531760E070E052
:102F1000CB010E9478170E948B1D0E945A1E81E0EF
:102F20000E94531708950E946D170E946E170E9409
:102F300077170E943A17811102C00E9483170895E3
:102F400008959C01FB018581882351F0A901575701
:102F50004038510530F4822F0E946A1E80E00895A7
:102F600081E008952FEFFC01208308950E94B2179D
:102F7000089580E00895B0E0A0E0E1ECF7E10C9462
:102F80003C2CEC01C62E0E94B917811110C0E881BB
:102F9000E150E331B8F4F0E0E757F04D0C94122C17
:102FA00019828CE08A836C2DCE010E94D124CDB78A
:102FB000DEB7E8E00C94582C89818230C1F028F407
:102FC000813061F08FEF8883EECF833099F08430C9
:102FD000C9F71A821B821C821D82E5CF0E94012440
:102FE0000E94182C6A837B838C839D83DCCF0E9494
:102FF0006E17F6CF8A81082F10E07E019EE0D92E51
:10300000D80E0430110578F6802F0E944313F70183
:10301000938384830F5F1F4FF2E0EF0EF11CD012F9
:10302000F0CFC1CF8981823031F0853059F68A8165
:103030000E94A017B8CF6A817B818C819D810E94FC
:10304000182C0E947817AFCF4B816A8189810E942A
:103050004D1D9827892798279D838C83A4CF2C8189
:103060003D813227232732274B816A8189810E9443
:103070006F1D99CF0E948B1D96CF6C2DCE010E94A3
:10308000B61791CF0E940B1E89838DCF0E940D1E13
:103090009827892798279A83898385CF6B8170E049
:1030A00089819A81AE014C5F5F4F982789279827C5
:1030B0000E94101E78CF6B8170E089819A81AE01E9
:1030C0004C5F5F4F9827892798270E94351E6BCF4A
:1030D0000E945A1E68CF0E943B1DD6CF6B8170E0C4
:1030E00089819A81AE014C5F5F4F98278927982785
:1030F0000E94B71D58CF6B8170E089819A81AE0123
:103100004C5F5F4F9827892798270E94DB1D4BCF84
:10311000AB0124E630E0BC0188E70E94AE2121E04B
:10312000892B09F020E0822F0895B0E0A0E0EBE9C0
:10313000F8E10C943C2C6C017B0164E670E088E7BC
:103140000E9414218C01E601EC0CFD1CCE15DF055C
:1031500061F40E94F62181E00115110509F080E07B
:10316000CDB7DEB7E8E00C94582C17FDF2CFFE0186
:10317000849164E670E00E9480218C012196E6CF64
:103180000F931F939B0104E610E0AC0160E488E715
:103190000E94CF2121E0892B09F020E0822F1F918E
:1031A0000F9108950E940E21089508950E94D51848
:1031B0000895ECE3F3E080E092E0DF019C011D92D2
:1031C00021503040E1F7F0934105E09340058FEF47
:1031D0009FEF9093B3028093B2020895CF930E9421
:1031E000D5180E94D6188093AE0280FD11C080E8E9
:1031F0008093AD020E94D2186BE070E089E092E00B
:103200000E949518811106C0C0E08C2FCF910895BF
:1032100080E2EECF8091AE0265E070E081FD27C0D4
:1032200084E092E00E949518882371F36DE070E0CD
:1032300082EF91E00E949518C82F882329F30E94FD
:103240000124605A75418F4F9F4F60933C057093E6
:103250003D0580933E0590933F050E94D91881E07B
:103260008093B1028093B0021092AF02CECF8FEF65
:1032700091E0D8CF2091AD0236E0839FC0011124A8
:10328000629F800D911D1124811522E0920714F098
:1032900090E080E0845C9C4F9093410580934005D2
:1032A00008952091400530914105265333404091C7
:1032B000AD02642F70E0C9010E94A92B481B463063
:1032C00010F4240F311D211582E0380710F030E092
:1032D00020E0245C3C4F3093410520934005089545
:1032E0001F93CF93DF93162F8A3039F481E00E9429
:1032F000E919DF91CF911F9108958D3011F480E08D
:10330000F6CFC0914005D091410596E0FE01A7E8B7
:10331000B2E001900D929A95E1F7803EB8F086E018
:10332000FE0111928A95E9F711111CC0C091400568
:10333000D091410546E050E0BE0187E892E00E944E
:10334000812C892BE9F40E945119D3CFF6E08F9F8D
:10335000B00111246C5E7D4F46E050E0CE010E942A
:10336000782CE2CFE0914005F09141059F012A5F62
:103370003F4F2E173F07D1F2808180958193F9CF7F
:10338000CC53D340CE0125E0969587952A95E1F759
:1033900021E030E0A90102C0440F551F8A95E2F7F1
:1033A000CA014091B2025091B302842B952B25960D
:1033B00045E0D695C7954A95E1F702C0220F331F25
:1033C000CA95E2F7822B932B9093B3028093B202BB
:1033D000BACFCF93382FE0914005F0914105EC53DF
:1033E000F3402091AD02622F70E0CF010E94A92B23
:1033F000281B822F332369F066E00E949D2BC82F83
:10340000C15010F4CF91089560E080E20E947019DD
:10341000F7CF9F01280F311D2115324018F080E0B1
:10342000F0E0E0E08E0F9F2F911D845C9C4F909305
:10343000410580934005E6CFFF920F931F93CF93F2
:10344000DF93EC01F62EFC0101900020E9F78F01DB
:1034500001501109C017D10728F0CDB7DEB7E5E05C
:103460000C945B2C6F2D89910E947019F3CF1F93E0
:10347000CF93DF93EC01162FFE018491811104C0DC
:10348000DF91CF911F910895612F0E9470192196AD
:10349000F3CF0E94371A81E00E94E91908958091C4
:1034A000B102811103C08091B00208950E940124ED
:1034B000605A75418F4F9F4F60933C0570933D0557
:1034C00080933E0590933F058091B0028111EBCF30
:1034D00063E070E08FEE91E00E949518882319F365
:1034E00081E08093B002DFCFB0E0A0E0EAE7FAE14C
:1034F0000C94362C8091B2029091B302892B09F47E
:10350000B6C08091B102882309F4B1C08091AF02A6
:103510008111ADC00E944F1A2091B2023091B302C6
:103520002115310509F4A3C090E041E050E0092FD6
:1035300010E0EA01092E02C0CC0FDD1F0A94E2F769
:10354000BE0162237323672B11F49F5FF0CF80913C
:10355000AE0280FF91C0990F990F990F90930C01C3
:1035600010920F01995F90930D0183E080931001F9
:1035700067E070E08AE091E00E948818882309F4EF
:1035800076C0980145E0220F331F4A95E1F78091FC
:10359000AE0280FF83C0EDE8F2E080E2DF011D9221
:1035A0008A95E9F70EEA11E08AEAE82E81E0F82E22
:1035B00097E0992E88248394D801ED918D01D7014D
:1035C0006D917D01620F732F711D645C7C4FF0E083
:1035D000E357FD4F50E040E0792C741AA82C042EDC
:1035E00001C0AA0C0A94EAF76B0180E0D6019D9114
:1035F0006D019A21A72DA81BA770BA2E0A2E000CC8
:10360000BB0B692E01C0660CBA94EAF7B62CB195D3
:10361000A195B109A770BB2701C09695AA95EAF7B5
:10362000A62DA92B90819A2B90838F5F8830F1F67D
:103630004F5F5F4F31964830510571F681E0023B94
:10364000180709F0B9CF60E270E08DE892E00E94BF
:10365000C018882361F0C095D0958091B2029091F6
:10366000B302C823D923D093B302C093B202CDB71B
:10367000DEB7EEE00C94522C9295990F90769093D1
:103680000C019801369527953695279520930F01C3
:10369000915E90930D01209310016ACF60E270E07B
:1036A000C901845C9C4FD3CF8091B0029091B1024C
:1036B000911103C091E089270895882369F063E0A0
:1036C00070E08CEE91E00E949518811103C080910A
:1036D000B00208951092B0028091B002EBCF0E9428
:1036E000F80408950F931F938091B102882309F184
:1036F00060E080E00E943A190E946F1B0E94741AD9
:103700008091B0028823A9F00E94012400913C0519
:1037100010913D0520913E0530913F05601B710BD6
:10372000820B930B6F3F7F4F8F4F9F4710F40E9488
:10373000541B1F910F910895CF93DF93EC01FB0170
:103740008581882309F4D2C09E0130572332310588
:1037500008F0B2C00E946D0F90932B0380932A0350
:10376000FE01E150F047E232F10520F4E456F04D5D
:103770000C94122C80912A03816080932A0393C0B9
:1037800080912B03886080932B038DC080912A0346
:103790008260F3CF80912A038460EFCF80912A0367
:1037A0008860EBCF80912B038160EDCF80912B035C
:1037B0008260E9CF80912A038061DFCF80912A0364
:1037C0008062DBCF80912A038064D7CF0E94C80932
:1037D00080912A038068D1CF80912A038C60CDCF5D
:1037E00080912B038360CFCF80912A038E7FC5CF3A
:1037F00080912B03877FC7CF80912A038D7FBDCF18
:1038000080912A038B7FB9CF80912A03877FB5CF20
:1038100080912B038E7FB7CF80912B038D7FB3CF09
:1038200080912A038F7EA9CF80912A038F7DA5CF17
:1038300080912A038F7BA1CF0E94C80980912A031F
:103840008F779BCF80912A03837F97CF80912B0323
:103850008C7F99CF80912A0382FB992790F921E0F0
:10386000922790FB82F990FB83F987CF80912B03FD
:10387000982F909591708E7F892B90FB81F983CF43
:1038800090912A03892F8F7B96FF806476CF0E94C8
:10389000C80990912A03892F97FB87F980586DCF2B
:1038A00081E00E94FC0F80912A0390912B030E94DB
:1038B000720F0E94C80980E0DF91CF91089580E0E7
:1038C000F0CF90912A03892F8F7E94FF806155CF8E
:1038D00090912A03892F8E7F90FF81604ECF909127
:1038E0002B03892F877F93FF88604DCF81E0E4CF42
:1038F000B0E0A0E0EEE7FCE10C943D2CE82FF0E016
:10390000EC5AF84FD490282F26952695269530E02E
:10391000F901EC50F84F0491877010E0082E02C0B6
:10392000159507950A94E2F701701127F901EC51FA
:10393000F84FE490F12C082E02C0F594E7940A9415
:10394000E2F791E0E922FF24F901EC52F84FC4912B
:10395000D0E002C0D595C7958A95E2F7C170DD2702
:103960000115110519F081EE0E94DD06E114F10444
:1039700019F086EE0E94DD068D2D0E947507E11478
:10398000F10419F086EE0E942A070115110519F0BD
:1039900081EE0E942A07CD2B19F08CE20E94750758
:1039A000CDB7DEB7E7E00C94592CEF92FF920F935E
:1039B0001F93CF93DF93EC01162F0AE088818823B1
:1039C00009F454C0813009F04EC08981813099F4E6
:1039D0007E0122E0E20EF11C8A810E947507E70158
:1039E0002196812F815050F3EFE9FFE03197F1F7F5
:1039F00000C00000F7CF823041F47E0182E0E80E83
:103A0000F11C8A810E94DD06EACF833041F47E01F9
:103A1000E2E0EE0EF11C8A810E942A07E0CF84309A
:103A200011F02196DDCF2A81229690E080E0AE0150
:103A30004F5F5F4F2053330B2A30310548F0019719
:103A400078F2EFE9FFE03197F1F700C00000F7CF1F
:103A5000089FB001099F700D1124C901860F971F9F
:103A60002981EA01E4CF0E94781CBACFCDB7DEB736
:103A7000E6E00C945A2C84E0089550E0440F551F62
:103A800098E1699F400D511D112490E6899F400DDA
:103A9000511D1124CA01899608950F931F93CF9346
:103AA000DF938430C8F46430B8F44C30A8F40E943A
:103AB0003D1D8C010E94292FC82FD0E0DC2FCC2780
:103AC000C80101960E94292F9E01282BC901DF9170
:103AD000CF911F910F91089590E080E0F8CF0F9360
:103AE0001F93CF93DF93122F032F843078F4643029
:103AF00068F44C3058F40E943D1DEC01602F0E9488
:103B0000472F612FCE0101960E94472FDF91CF9161
:103B10001F910F9108950F931F93CF93DF93D0E0E0
:103B2000C0E010E019C00E943B0521E030E08C1796
:103B30001D0639F034F0402F612F8C2F0E943D0577
:103B40009C01402F612F8C2F0E946F1D0F5F0C3046
:103B500051F71F5F143011F000E0E5CF2196C4301B
:103B6000D105F9F6DF91CF911F910F910895EF9252
:103B7000FF920F931F93CF93DF93EC018A017C0197
:103B8000E60EF71ECE018996CE15DF0529F4CDB7D6
:103B9000DEB7E6E00C945A2CC03821E0D20740F49E
:103BA0000E94292FF80180830F5F1F4F2196EACFD3
:103BB000F8011082F9CFB0E0A0E0E1EEFDE10C9455
:103BC0003C2C7C016A018C01060F171FEC01CE0111
:103BD0008996C017D10729F4CDB7DEB7E8E00C9479
:103BE000582CC03821E0D20740F4FE01EE19FF093D
:103BF000EC0DFD1D60810E94472F2196E8CF843097
:103C000038F4643028F44C3018F40E944D1D0895A7
:103C100090E080E0089580E1089587E592E00895BE
:103C2000EF92FF920F931F93CF93DF93EC018A01E2
:103C30007C01E60EF71ECE0187559E4FCE15DF059F
:103C400029F4CDB7DEB7E6E00C945A2CC73522E054
:103C5000D20740F40E94292FF80180830F5F1F4F85
:103C60002196E9CFF8011082F9CFB0E0A0E0EBE3B4
:103C7000FEE10C943C2C7C016A018C01060F171F9D
:103C8000EC01CE0187559E4FC017D10729F4CDB75F
:103C9000DEB7E8E00C94582CC73522E0D20740F498
:103CA000FE01EE19FF09EC0DFD1D60810E94472FFA
:103CB0002196E7CFCF93DF93C9EAD1E060E0CE0150
:103CC0000E94472F2196C11584E0D807B9F7DF91EC
:103CD000CF910895A8E0B0E0E0E7FEE10C943A2C23
:103CE000F82E8FE08F1508F46EC08FEF93E00E94DE
:103CF000292F811168C009EA11E0F11035C0FE01D9
:103D000031966F0188E011928A95E9F77801FFEF0B
:103D1000EF1AFF0AC8010E94292F89831A8288237B
:103D200009F451C08130D1F4580182E0A80EB11CD1
:103D3000C7010E94292F8A83882309F444C09FEF7A
:103D4000980F9330F0F4780193E0E90EF11CC5016F
:103D50000E94292F8B838823B1F11C8260E0C60169
:103D60000E94D51C8701D2CF011594E0190759F1A3
:103D7000C8010E94292F811101C0FA940F5F1F4FC3
:103D8000BCCF7501843051F702E010E07501EFEF10
:103D9000EE1AFE0AC5010E94292FF601E00FF11F5D
:103DA0008083882381F08C3741F4E2E0F0E0EC0F6F
:103DB000FD1FE00FF11F1082D1CF0F5F1F4F570182
:103DC0000730110519F72896EAE00C94562CCF938A
:103DD000DF93EB0186319C4711F50E94560E9D81C1
:103DE000992399F08A7A91E009F490E09093B402D3
:103DF000811109C089E20E942E0E0E94AF0E80E060
:103E0000DF91CF91089585E3F6CF8091B4028111BF
:103E100004C089E20E94360EF0CF85E3FBCF81E03B
:103E2000EFCF0F931F93CF93DF93C42FD22FFC01BB
:103E300085818823C9F04093B7020E94F5239093AF
:103E4000B6028093B50280E28C0F883040F4C770D0
:103E500081E001C0880FCA95EAF70E947E07DF91D2
:103E6000CF911F910F9108951091B702141332C092
:103E70008091B5029091B6020E940D24883C910574
:103E800048F5C0E2CD0F1D17B9F080E2810F8830F0
:103E900040F4177081E001C0880F1A95EAF70E947C
:103EA0008507C83048F481E09D2F977001C0880FC6
:103EB0009A95EAF70E947E07802F0E947507C83006
:103EC00070F6D77081E001C0880FDA95EAF70E949A
:103ED0008507C5CF80E28C0F883008F6C77081E077
:103EE00001C0880FCA95EAF7F2CF0F93DB01885122
:103EF0009C4787309105A0F5FC01E254F04D0C94ED
:103F0000122C06E221EE41EE6AE17CE7CD010E942F
:103F1000111F80E00F91089507E225EE45EE6BE159
:103F20007CE7F4CF06E221EE40EE68E17CE7EECFDD
:103F300007E225EE44EE69E17CE7E8CF06E221EEF8
:103F400042EE6CE17CE7E2CF07E225EE46EE6DE162
:103F50007CE7DCCF08E221E045EE6EE17CE7D6CFDE
:103F600015968C91882319F01092B702D3CF81E077
:103F7000D1CF8091F50208959C013A9521153F44D7
:103F800078F499279C01245031092432310578F0C6
:103F90002752310981E02E30310550F080E008953C
:103FA0008F3F910579F370F390E080E0EBCF81E0F3
:103FB00008950E94BC1F08950E94D91F882381F094
:103FC000E091BE02F0E0EE0FFF1FE154FD4F808153
:103FD00091818F3F2FE7920719F00196918380839B
:103FE00008958F929F92AF92BF92CF92DF92EF92FD
:103FF000FF92CF93C090BF02D090C0020D2C000C56
:10400000EE08FF082091110130E0EFEBF2E081E0D3
:1040100090E03296281739070CF0A7C06091F102A2
:104020007091F2028091F3029091F4020E941C249C
:104030004B015C01C091110189EC88169104A10427
:10404000B10414F18091BE0290E0019669E170E044
:104050000E94BD2B8093BE02880F991FFC01E15482
:10406000FD4F118210828C2FC83108F087E18F5FDD
:10407000809311010E9401246093F1027093F20277
:104080008093F3029093F40282E0C816D104E10415
:10409000F1040CF476C0A0E6BAEEA70196010E94E6
:1040A0001F2C6B017C0188ECC89F90011124032E0A
:1040B000000C440B550B280D391D4A1D5B1DA5E056
:1040C000B0E00E941F2C9B01AC01C701B6010E9409
:1040D000D12B69017A0181EFC816D104E104F10402
:1040E0002CF080EFC82ED12CE12CF12C6091BA027B
:1040F0007091BB028091BC029091BD020E941C2471
:104100004B015C0185E688169104A104B10484F09A
:104110000E9401246093BA027093BB028093BC0298
:104120009093BD028091F5028093B902C092B802CB
:10413000C091B902A091B802AC1BBB0BA5019401C0
:104140000E942A2C24E630E040E050E00E94F32B4D
:10415000C20FC093F502CF91FF90EF90DF90CF9008
:10416000BF90AF909F908F90089540815181052E10
:10417000000C660B770BC40ED51EE61EF71E0196CB
:1041800048CFC12CD12C7601B1CF1F93CF93DF93B1
:1041900087372CE7920759F0C1E088379C47E1F454
:1041A000FB01C581CC2371F10E94082106C0FB01EF
:1041B000C581CC23B1F00E9405210E94400A0E94D3
:1041C0000B21D82F0E940821C82F0E9405214D2FB6
:1041D0006C2F0E94680BC0E08C2FDF91CF911F9154
:1041E00008950E9405210E944C0A0E940B21182F5D
:1041F0000E940821D82F0E940521412F6D2F0E9477
:10420000680BEACF0E940821EECF80911401089537
:104210008091130108958091120108951092B900C0
:104220008CE08093B8000895B0E0A0E0EAE1F1E20C
:104230000C94392CB82EEB010E94F5236C01EE246E
:10424000E394F12CC431D10560F025E0E22EF12C8D
:10425000CF3FDC0731F0CE0164E170E00E94A92B72
:104260007B0184EAA82E94E8992E1092BC00A092BB
:10427000BC000E94F5238C018091BC0087FF0DC01B
:104280008091B900887F8830F9F08091B900887FEB
:104290008031D1F00FEF1FEF08C0C8010E940D243C
:1042A000E816F90648F70EEF1FEFCF3FDC07E9F2FB
:1042B000C6010E940D24C817D907B8F6C801CDB7AA
:1042C000DEB7EBE00C94552CB092BB009092BC0092
:1042D0000E94F5238C018091BC0087FF0AC0809169
:1042E000B900887F883111F08034A1F610E000E039
:1042F000E5CFC8010E940D24E816F90660F7D3CF78
:104300000F931F93CF93DF93EB018093BB0084E85F
:104310008093BC000E94F5238C018091BC0087FF34
:1043200011C02091B900287F81E090E0283211F47B
:1043300090E080E0919581959109DF91CF911F9157
:104340000F910895CF3FDC0741F3C8010E940D246F
:10435000C817D90710F78EEF9FEFEFCFB0E0A0E0BE
:10436000E4EBF1E20C943C2C6B018A017901B90178
:104370000E941421E6010C0D1D1DC017D10711F07C
:1043800097FF08C024E92093BC00CDB7DEB7E8E072
:104390000C94582CB70189910E948021EECFB0E097
:1043A000A0E0E5EDF1E20C943C2CC62F6A01790106
:1043B000B8010E94142197FD0CC0B8018C2F0E94F7
:1043C0008021E601EC0CFD1CCE15DF0511F097FFF6
:1043D00008C024E92093BC00CDB7DEB7E8E00C9418
:1043E000582CB80189910E948021EECF84E98093F6
:1043F000BC0008959093C3018093C20108959093E7
:10440000FB028093FA020895E091FA02F091FB0218
:10441000309729F00190F081E02D0995089580E012
:104420000895E091FA02F091FB02309799F0209103
:104430001D01222359F020912A0327FF07C0DC0128
:104440002C9111962C93119726E02C930280F381E6
:10445000E02D09950895E091FA02F091FB02309762
:1044600039F022E0DC012C930480F581E02D0995E0
:104470000895A3E0B0E0EFE3F2E20C94422C209127
:10448000F8023091F90228173907A1F09093F90248
:104490008093F802E091FA02F091FB02309751F01C
:1044A00023E029839B838A830680F781E02DCE0158
:1044B000019609952396E2E00C945E2CA3E0B0E00F
:1044C000E4E6F2E20C94422C2091F6023091F702DD
:1044D00028173907A1F09093F7028093F602E09134
:1044E000FA02F091FB02309751F024E029839B837C
:1044F0008A830680F781E02DCE01019609952396E7
:10450000E2E00C945E2CFC01329680911D01882320
:1045100021F080912A039EE187FF96E080E0915090
:1045200008F4089521912223D1F38F5FF8CF6623F9
:1045300001F120911D012223F1F020912A0327FF90
:104540001AC0462F4695469546954E3190F46770B1
:1045500021E030E002C0220F331F6A95E2F7840F9A
:10456000911DFC01828190E02823392381E0232BD7
:1045700069F480E00895FC0132960896219126178F
:1045800021F0E817F907D1F7F4CF81E008959C01F5
:10459000FC0132969FEF80E04191461751F09F3F1A
:1045A00019F4411101C0982F8F5F8630A9F79F3F02
:1045B00009F40895290F311D97FD3A95F901628399
:1045C0000895FC01329608962191261303C0DF015D
:1045D00011971C92E817F907B9F70895E62FE695A9
:1045E000E695E695EE3168F4E80FF92FF11D677056
:1045F00021E030E001C0220F6A95EAF78281822B28
:1046000082830895E62FE695E695E695EE3170F4FF
:10461000E80FF92FF11D677021E030E001C0220F93
:104620006A95EAF7209582812823228308952091B4
:104630001D01222339F020912A0327FF03C00E9485
:10464000EE2208950E94C722089520911D01222381
:1046500039F020912A0327FF03C00E940223089506
:104660000E94E1220895FC01329680911D01882369
:1046700051F080912A0387FF06C08EE1DF011D9271
:104680008A95E9F7089586E0F9CF46E050E00E9468
:10469000812C21E0892B09F420E0822F08950895D0
:1046A0000E944F230895811106C081E08093FC028F
:1046B0000E945023089582E0F9CF83E08093FC02AA
:1046C0000E94502308950E945323089581E080930F
:1046D000FC020E94502308950E94662308950895C5
:1046E00008950E9470230895089508950E946F23ED
:1046F0000895CF930E9474230E9407140E9475238B
:10470000C0E08C2F0E944313892B31F4CF5FC4305B
:10471000C1F780E0CF91089581E0FCCF85B7806834
:1047200085BF85B7806885BF08951F921FB61F9209
:1047300011248F939F93AF93BF938091FD028111BA
:1047400013C08091420590914305A0914405B0911A
:1047500045054196A11DB11D8093420590934305E7
:10476000A0934405B0934505BF91AF919F918F9160
:104770001F901FBE1F90189580914A05843031F11B
:104780000E943E061092FD0288E190E020E40FB600
:10479000F894A895809360000FBE2093600083B7C3
:1047A000817F846083BF83B7816083BF789488955D
:1047B00083B78E7F83BF0FB6F894A8958091600071
:1047C000886180936000109260000FBE08950E947F
:1047D000C8090E944506089582E084BD93E095BD16
:1047E0009AEF97BD80936E0008952FB7F89480914B
:1047F000420590914305A0914405B09145052FBF16
:1048000008952FB7F8946091420570914305809107
:104810004405909145052FBF08959C014FB7F8942A
:104820008091420590914305A0914405B0914505C2
:104830004FBF821B930B0895CF92DF92EF92FF92AE
:104840002FB7F894C0904205D0904305E0904405FE
:10485000F09045052FBFA7019601261B370B480B8B
:10486000590BCA01B901FF90EF90DF90CF900895E6
:1048700078941F921FB61F9211248F939F93AF932A
:10488000BF938091420590914305A0914405B0915A
:1048900045050196A11DB11D8093420590934305E6
:1048A000A0934405B0934505BF91AF919F918F911F
:1048B0001F901FBE1F90189587E797E790930108F8
:1048C0008093000888E19AE00FB6F894A895809349
:1048D00060000FBE90936000FFCF88E19AE00FB6B2
:1048E000F894A895809360000FBE90936000FFCF6E
:1048F00080911E0308959B01BA0190914A0594305E
:10490000E9F48F708093E9009FEF8091E800915067
:1049100085FD06C085ED8A95F1F700009111F5CF70
:104920008091E80085FF0AC050E040E0C9010E9484
:10493000C7268091E8008E778093E800089543E0D1
:1049400050E0BC0184E00E947B24089546E050E0E2
:10495000BC0184E00E947B240895CF93DF93EC0197
:1049600080911D01811111C048E050E0BE0181E03D
:104970000E947B2480E2FE01AEEFB2E001900D9236
:104980008A95E1F7DF91CF91089580912A0387FFFF
:1049900005C040E284E050E0BE01EACF48E081E09B
:1049A000FACF603231F440E250E0BC0182E00E9474
:1049B0007B24089580914905811109C00E94A62891
:1049C0000E9403298091E20084608093E2000895B0
:1049D0001092490508950E94662308956091460546
:1049E00081E0611101C080E00E945D2308959091F3
:1049F0004A0581E0943009F080E0609146050E940C
:104A00006323089542E061EC81E00E94222842E2A3
:104A100061EC84E00E94222842E261EC82E00E9484
:104A2000222842E260EC83E00E94222890914A050D
:104A300081E0943009F080E0609146050E945323A4
:104A4000089580914C05833009F463C030F48130BF
:104A5000E1F1823009F4A0C008958A3009F48CC0D5
:104A60008B3009F471C0893009F052C080914B0538
:104A7000813209F04DC080914F059091500500970B
:104A800019F0029709F044C08091E800877F809375
:104A9000E8008091E80082FF37C09091F300809198
:104AA000F200029731F48091F100813011F08630EC
:104AB00021F48091F10080931E038091E8008B77B0
:104AC0008093E8000E94562823C080914B05813ACC
:104AD000F9F48091E800877F8093E80080914F058A
:104AE00090915005892B61F460E28EEF92E070E0C6
:104AF0000E9465278091E8008B778093E8000895F5
:104B000060E090E080E0F3CF80914A058111C1CF51
:104B1000089580914B05813AD9F780914F05909186
:104B20005005892BA9F78091E800877F8093E800E2
:104B30008091E80080FFFCCF80911D018093F100FF
:104B40008091E8008E77BCCF80914B05813201F7D0
:104B500080914F0590915005892BD1F68091E80006
:104B6000877F8093E8000E94562880914D058093AE
:104B70001D010E94C809089580914B05813241F6BC
:104B80008091E800877F8093E8000E9456288091FA
:104B90004E0580931F03089580914B05813A09F0DB
:104BA000B7CF8091E800877F8093E8008091E8008C
:104BB00080FFFCCF80911F03C1CF84B7877F84BF64
:104BC0000FB6F894A895809160008861809360008A
:104BD000109260000FBE80E890E00FB6F8948093CA
:104BE0006100909361000FBE0E946C2308950E94A3
:104BF000A6280E940329E2EEF0E080818460808391
:104C000078940E94822B089585E191E00E94FF2113
:104C1000089580914A05853031F480914A058530A8
:104C200019F00E94E72308950E94BC238091480553
:104C3000882399F30E947923882379F30E94B1266F
:104C40000E94C809EACFA0E2B0E0E9E2F6E20C94E3
:104C5000422C80914A05843009F583E08093E90075
:104C60008091E80082FF1AC08091E80090E085FF03
:104C700009C050E040E060E270E0CE0101960E9481
:104C8000162791E08091E8008B778093E8009923C4
:104C900029F060E2CE0101960E94BB17A096E2E0E7
:104CA0000C945E2C9A0140915105509152050E943E
:104CB0005A260895492F55274330510521F168F4AC
:104CC0004130510509F443C04230510509F444C054
:104CD00090E080E050E040E026C04132510551F1C3
:104CE00042325105A9F76330710590F7FB01EE0FD1
:104CF000FF1FEB54FE4F408151816E547E4FFB01EC
:104D0000808190E010C099278130910581F0009753
:104D100029F00297E9F6E4E0F8E002C0E8E2F8E002
:104D2000849190E0AF01F901518340830895EAE155
:104D3000F8E0F6CF6330710558F6660F771FFB0178
:104D4000E554FE4F4081518189E090E0ECCF82E153
:104D500090E047E858E0E7CF8BE590E04CE258E080
:104D6000E2CF80E189BD82E189BD09B400FEFDCFBB
:104D70008091D8008F7D8093D8008091E000826080
:104D80008093E0008091E00081FDFCCF0895AF9218
:104D9000BF92CF92DF92FF920F931F93CF93DF9337
:104DA0006C01EB018A010E947528F82E811123C045
:104DB0000115110539F0F80180819181C81BD90BCB
:104DC000C80ED91EB12CA12C2097A9F08091E80023
:104DD00085FD22C08091E8008E778093E800011560
:104DE0001105A1F0F80180819181A80EB91EB18250
:104DF000A08285E0F82E8F2DDF91CF911F910F912A
:104E0000FF90DF90CF90BF90AF9008950E947528DB
:104E10008823D1F2F82EEFCFF60181916F018093B4
:104E2000F1002197FFEFAF1ABF0ACECFAF92BF922A
:104E3000CF92DF92FF920F931F93CF93DF936C017A
:104E4000EB018A010E947528F82E811123C00115FB
:104E5000110539F0F80180819181C81BD90BC80E6A
:104E6000D91EB12CA12C2097A9F08091E80085FDD6
:104E700022C08091E8008B778093E800011511052E
:104E8000A1F0F80180819181A80EB91EB182A082A3
:104E900085E0F82E8F2DDF91CF911F910F91FF901C
:104EA000DF90CF90BF90AF9008950E94752888231F
:104EB000D1F2F82EEFCF8091F100F60181936F01CE
:104EC0002197FFEFAF1ABF0ACECFFC0180915105A9
:104ED0009091520586179707A0F06115710529F486
:104EE0009091E8009E779093E80090E0611571053D
:104EF00051F4911108C08091E80082FF34C080E035
:104F00000895BC01F2CF80914A058823C1F1853014
:104F1000C1F18091E80083FD30C08091E80082FDFE
:104F2000EACF8091E80080FFE1CF8091F3002091EB
:104F3000F200382F6115710519F02830310558F04D
:104F400091E02830310509F090E02091E8002E77BB
:104F50002093E800CBCF81918093F10061507109DB
:104F60002F5F3F4FE7CF80914A05882341F085307E
:104F700041F08091E80083FFBECF81E0089582E098
:104F8000089583E00895FC018091510590915205A8
:104F900086179707A0F06115710529F48091E80044
:104FA0008E778093E80090E06115710551F49111BE
:104FB00008C08091E80082FF35C080E00895BC0100
:104FC000F2CF80914A058823C9F18530C9F18091DB
:104FD000E80083FD31C08091E80082FDEACF809136
:104FE000E80080FFE1CF8091F3002091F200382F9C
:104FF0006115710519F02830310558F091E028301D
:10500000310509F090E08091E8008E778093E80008
:10501000CBCF84918093F1003196615071092F5F5D
:105020003F4FE6CF80914A05882341F0853041F01B
:105030008091E80083FFBDCF81E0089582E008956C
:1050400083E00895982F973028F08F708093E900BF
:1050500081E008959093E900242F762F50E098176F
:1050600031F07091EC002091ED005091F00021FDA5
:1050700002C09F5FE8CF3091EB003E7F3093EB00A2
:105080003091ED003D7F3093ED003091EB003160C9
:105090003093EB007093EC002093ED005093F00000
:1050A0002091EE0027FDE5CF80E0089580914B052B
:1050B00087FF13C08091E80082FF06C08091E8005E
:1050C0008B778093E80004C080914A058111F2CF6C
:1050D000089580914A058823D9F38091E80080FFE4
:1050E000F8CF8091E8008E77ECCF2091E4003091EA
:1050F000E50095E6A9012091EC00822F817020FF48
:1051000006C08091E80080FF06C080E008952091ED
:10511000E80022FD1AC080914A05882389F0853075
:1051200089F08091EB0085FD0FC02091E400309163
:10513000E50042175307F9F29150E1F684E0089533
:1051400082E0089583E0089581E008950E94152982
:105150000E941D29E0EEF0E0808181608083E8ED0F
:10516000F0E080818F77808319BCA7EDB0E08C914F
:105170008E7F8C9380818F7E808310924905089565
:105180000F931F93CF93DF930E9415290E941D292F
:10519000C8EDD0E088818F77888388818068888394
:1051A00088818F7D888319BC10924A05109246052C
:1051B000109248051092470500EE10E0F80180813A
:1051C0008B7F808388818160888342E060E080E01B
:1051D0000E942228E1EEF0E080818E7F8083E2EE63
:1051E000F0E0808181608083808188608083F80125
:1051F00080818E7F8083888180618883DF91CF91D9
:105200001F910F910895E8EDF0E080818F7E8083FB
:10521000E7EDF0E080818160808384E082BF81E0FF
:10522000809349050E94C0280895E8EDF0E0808150
:105230008E7F80831092E20008951092DA0010921F
:10524000E10008951F920F920FB60F9211242F9331
:105250003F934F935F936F937F938F939F93AF93FE
:10526000BF93EF93FF938091E10082FF0BC0809189
:10527000E20082FF07C08091E1008B7F8093E10014
:105280000E94812B8091DA0080FF19C08091D800A4
:1052900080FF15C08091DA008E7F8093DA008091C4
:1052A000D90080FF96C080E189BD82E189BD09B443
:1052B00000FEFDCF81E080934A050E94DA248091B0
:1052C000E10080FF19C08091E20080FF15C080914D
:1052D000E2008E7F8093E2008091E2008061809303
:1052E000E2008091D80080628093D80019BC85E0EC
:1052F00080934A050E94EE248091E10084FF2BC038
:105300008091E20084FF27C080E189BD82E189BDF0
:1053100089B5982F917080FFFBCF8091D8008F7D49
:105320008093D8008091E1008F7E8093E10080918E
:10533000E2008F7E8093E2008091E20081608093A2
:10534000E20080914605882309F449C084E08093F7
:105350004A050E94F7248091E10083FF29C08091D3
:10536000E20083FF25C08091E100877F8093E10008
:1053700082E080934A05109246058091E1008E7F7D
:105380008093E1008091E2008E7F8093E200809123
:10539000E20080618093E20042E060E080E00E94F1
:1053A00022288091F00088608093F0000E94EB2416
:1053B000FF91EF91BF91AF919F918F917F916F91ED
:1053C0005F914F913F912F910F900FBE0F901F90C3
:1053D000189519BC10924A050E94E82470CF80915C
:1053E000E30087FD93E090934A05B3CF1F920F929D
:1053F0000FB60F9211242F933F934F935F936F93A8
:105400007F938F939F93AF93BF93CF93DF93EF934C
:10541000FF93D091E900DF708091EC00C82FC1703C
:1054200080FDC0E81092E9008091F000877F8093B2
:10543000F00078940E943A2A1092E9008091F000DE
:1054400088608093F000CD2BCF70C093E900FF916E
:10545000EF91DF91CF91BF91AF919F918F917F910C
:105460006F915F914F913F912F910F900FBE0F90D1
:105470001F901895AAE2B0E0E0E4FAE20C94412C07
:105480008BE495E02091F100FC012193CF01F5E040
:1054900083359F07B9F70E9421258091E80083FF9B
:1054A0001EC180914B0590914C059A3008F017C1B0
:1054B000E92FF0E0EB53F04D0C94122C803899F06A
:1054C000823809F00CC180914F058F70873008F049
:1054D00006C18093E9008091EB0085FB882780F965
:1054E0001092E90006C080914705909148059111FE
:1054F00082609091E800977F9093E8008093F1009C
:105500001092F1008091E8008E77E5C0882309F4BD
:10551000D3C0823009F0E3C080914D058111D6C01F
:1055200080914F058F702FEF280F263008F0D7C0DD
:105530008093E9002091EB0020FFC8C0933031F444
:105540008091EB0080628093EB00C0C09091EB00F3
:1055500090619093EB0021E030E001C0220F8A952A
:10556000EAF72093EA001092EA008091EB0088604D
:10557000EACF8111B4C010914D051F778091E300EF
:105580008078812B8093E3008091E800877F80936F
:10559000E8000E9456288091E80080FFFCCF8091AF
:1055A000E30080688093E30082E0111183E0809340
:1055B0004A0595C08058823008F091C080914D0511
:1055C00090914E058C3D23E09207A1F583E08A83FC
:1055D0008AE289834FB7F894DE01139620E03EE01B
:1055E00051E2E32FF0E050935700E49120FF03C015
:1055F000E295EF703F5FEF708E2F90E0EA30C0F0E1
:10560000C7968D939D932F5F243159F74FBF80919B
:10561000E800877F8093E8006AE270E0CE0101969F
:105620000E9465278091E8008B778093E80057C03F
:10563000C096E7CF60914F0570915005AE014F5F66
:105640005F4F0E945226BC01892B09F448C09091FB
:10565000E800977F9093E80089819A810E94C32790
:10566000E1CF8038E1F58091E800877F8093E80002
:10567000809146058093F10045CF811130C0909113
:105680004D05923060F58091E800877F8093E800B7
:10569000909346050E94562880914605882311F074
:1056A00084E005C08091E30087FDFACF81E080931C
:1056B0004A050E94022513C080914D05813079F47E
:1056C00081E0933009F080E0809348051092E90072
:1056D0008091E800877F8093E8000E94562880919F
:1056E000E80083FF0AC08091E800877F8093E8008C
:1056F0008091EB0080628093EB00AA96E3E00C942B
:105700005D2C0895CF9380914A058823A1F0C09124
:10571000E900CF709091EC00892F817090FD80E8B6
:10572000C82B1092E9008091E80083FD0E943A2A7C
:10573000CF70C093E900CF910895991B79E004C020
:10574000991F961708F0961B881F7A95C9F78095C0
:105750000895AA1BBB1B51E107C0AA1FBB1FA617B8
:10576000B70710F0A61BB70B881F991F5A95A9F70A
:1057700080959095BC01CD01089597FB072E16F4F6
:10578000009407D077FD09D00E94A92B07FC05D013
:105790003EF4909581959F4F0895709561957F4F48
:1057A0000895A1E21A2EAA1BBB1BFD010DC0AA1F62
:1057B000BB1FEE1FFF1FA217B307E407F50720F07A
:1057C000A21BB30BE40BF50B661F771F881F991FF5
:1057D0001A9469F760957095809590959B01AC013E
:1057E000BD01CF010895052E97FB1EF400940E9481
:1057F0000A2C57FD07D00E94D12B07FC03D04EF492
:105800000C940A2C50954095309521953F4F4F4F61
:105810005F4F089590958095709561957F4F8F4F5C
:105820009F4F0895EE0FFF1F0590F491E02D09940E
:1058300069279627692778278727782708950E9460
:10584000692CA59F900DB49F900DA49F800D911D74
:1058500011240895B7FF0C941F2C0E941F2C821B4B
:10586000930B08952F923F924F925F926F927F9287
:105870008F929F92AF92BF92CF92DF92EF92FF9260
:105880000F931F93CF93DF93CDB7DEB7CA1BDB0B0C
:105890000FB6F894DEBF0FBECDBF09942A883988B1
:1058A00048885F846E847D848C849B84AA84B984B8
:1058B000C884DF80EE80FD800C811B81AA81B981C4
:1058C000CE0FD11D0FB6F894DEBF0FBECDBFED01D8
:1058D0000895A29FB001B39FC001A39F700D811DC9
:1058E0001124911DB29F700D811D1124911D0895E9
:1058F000FB01DC0102C005900D9241505040D8F7E9
:105900000895FB01DC0104C08D910190801921F400
:1059100041505040C8F7881B990B0895FB01DC01EA
:1059200002C001900D9241505040D8F70895AEE06A
:10593000B0E0EDE9FCE20C94402C0D891E8986E074
:105940008C831A8309838FEF9FE79E838D83AE013B
:10595000475E5F4F6F89788DCE0101960E94BA2C09
:105960002F813885020F131FF80110822E96E4E074
:105970000C945C2CABE0B0E0E0ECFCE20C94322C3C
:105980007C013B018A01FC0117821682838181FF21
:10599000B9C19AE0292ECE0101965C01F7019381ED
:1059A000F30193FD859193FF81913F01882309F4D1
:1059B00046C1853239F493FD859193FF81913F0172
:1059C000853229F4B70190E00E949B2EE7CF912CFD
:1059D000412C512CFFE1F51538F08B3209F188F498
:1059E000803201F1833221F157FC3AC020ED280FBB
:1059F0002A3040F556FE1FC0929C200D1124922E95
:105A000006C08D3291F0803379F7689450F8F30135
:105A100093FD859193FF81913F018111DBCF20C0E0
:105A2000689451F8689452F8F2CF689453F8EFCF25
:105A3000689454F8ECCF429C200D1124422E6894B7
:105A400055F8E5CF8E3229F456FCF9C0689456F823
:105A5000DECF8C3619F4689457F8D9CF8836B9F26E
:105A6000982F9F7D95549330C0F08336A1F18337F2
:105A7000C1F1833509F05BC0F801C190D1908F016D
:105A8000692D70E056FC02C06FEF7FEFC6010E94E7
:105A9000852E4C01689457F80AC00C5F1F4F2FE306
:105AA000298388248394912C6501E89457F853FC4A
:105AB00004C04814190409F018F5342C8114910419
:105AC00031F5332009F46ACFB70180E290E00E94FB
:105AD0009B2E3A94F6CFF801808189830E5F1F4F89
